:020000040000FA
:10C000003DB8F396000000000002000094780000A4
:10C010000000000000000000000000000000000020
:10C02000FFFFFFFFFFFFFFFFFFFFFFFFFFFFFFFF20
:10C03000FFFFFFFFFFFFFFFFFFFFFFFFFFFFFFFF10
:10C04000FFFFFFFFFFFFFFFFFFFFFFFFFFFFFFFF00
:10C05000FFFFFFFFFFFFFFFFFFFFFFFFFFFFFFFFF0
:10C06000FFFFFFFFFFFFFFFFFFFFFFFFFFFFFFFFE0
:10C07000FFFFFFFFFFFFFFFFFFFFFFFFFFFFFFFFD0
:10C08000FFFFFFFFFFFFFFFFFFFFFFFFFFFFFFFFC0
:10C09000FFFFFFFFFFFFFFFFFFFFFFFFFFFFFFFFB0
:10C0A000FFFFFFFFFFFFFFFFFFFFFFFFFFFFFFFFA0
:10C0B000FFFFFFFFFFFFFFFFFFFFFFFFFFFFFFFF90
:10C0C000FFFFFFFFFFFFFFFFFFFFFFFFFFFFFFFF80
:10C0D000FFFFFFFFFFFFFFFFFFFFFFFFFFFFFFFF70
:10C0E000FFFFFFFFFFFFFFFFFFFFFFFFFFFFFFFF60
:10C0F000FFFFFFFFFFFFFFFFFFFFFFFFFFFFFFFF50
:10C10000FFFFFFFFFFFFFFFFFFFFFFFFFFFFFFFF3F
:10C11000FFFFFFFFFFFFFFFFFFFFFFFFFFFFFFFF2F
:10C12000FFFFFFFFFFFFFFFFFFFFFFFFFFFFFFFF1F
:10C13000FFFFFFFFFFFFFFFFFFFFFFFFFFFFFFFF0F
:10C14000FFFFFFFFFFFFFFFFFFFFFFFFFFFFFFFFFF
:10C15000FFFFFFFFFFFFFFFFFFFFFFFFFFFFFFFFEF
:10C16000FFFFFFFFFFFFFFFFFFFFFFFFFFFFFFFFDF
:10C17000FFFFFFFFFFFFFFFFFFFFFFFFFFFFFFFFCF
:10C18000FFFFFFFFFFFFFFFFFFFFFFFFFFFFFFFFBF
:10C19000FFFFFFFFFFFFFFFFFFFFFFFFFFFFFFFFAF
:10C1A000FFFFFFFFFFFFFFFFFFFFFFFFFFFFFFFF9F
:10C1B000FFFFFFFFFFFFFFFFFFFFFFFFFFFFFFFF8F
:10C1C000FFFFFFFFFFFFFFFFFFFFFFFFFFFFFFFF7F
:10C1D000FFFFFFFFFFFFFFFFFFFFFFFFFFFFFFFF6F
:10C1E000FFFFFFFFFFFFFFFFFFFFFFFFFFFFFFFF5F
:10C1F000FFFFFFFFFFFFFFFFFFFFFFFFFFFFFFFF4F
:10C20000B02E002079DA00009F150100EDD8000063
:10C21000EDD80000EDD80000EDD80000EDD800000A
:10C22000EDD80000EDD80000EDD80000B5D8000032
:10C23000EDD80000EDD8000061D8000027150100FE
:10C2400009D9000009D9000009D9000009D9000066
:10C2500009D9000009D9000009D9000009D9000056
:10C2600009D9000009D9000009D9000009D9000046
:10C2700009D9000009D9000009D9000009D9000036
:10C2800009D9000009D9000009D9000009D9000026
:10C2900009D9000009D9000009D9000009D9000016
:10C2A00009D9000009D9000009D9000009D9000006
:10C2B00009D9000009D9000009D9000009D90000F6
:10C2C00009D9000009D9000009D9000009D90000E6
:10C2D00009D9000009D9000009D9000009D90000D6
:10C2E00009D9000009D9000009D9000009D90000C6
:10C2F00009D9000009D9000009D9000009D90000B6
:10C3000009D9000009D9000009D9000009D90000A5
:10C3100009D9000009D9000009D9000009D9000095
:10C3200009D9000009D9000009D9000009D9000085
:10C3300009D9000009D9000009D9000009D9000075
:10C3400009D9000053B94AB9002908BF00281CBF09
:10C350004FF0FF314FF0FF3000F070B9ADF1080C35
:10C360006DE904CE00F006F8DDF804E0DDE9022313
:10C3700004B070472DE9F04F099E04468946002B12
:10C3800040F083808A42154645D9B2FA82F24AB11A
:10C39000C2F1200701FA02F39540944020FA07F712
:10C3A00047EA03094FEA154E230C1FFA85F8B9FB3B
:10C3B000FEFC0EFB1C990CFB08F143EA0943994271
:10C3C0000AD9EB182CBF01200020994202D900287D
:10C3D00000F01D810CF1FF3C591AA3B2B1FBFEF035
:10C3E0000EFB101100FB08F843EA0144A04505D9F3
:10C3F0002C1902D2A04500F20E810138A4EB0804EA
:10C4000040EA0C4000271EB1D4400023C6E9004397
:10C410003946BDE8F08F002A51D0B2FA82F2002AE4
:10C4200040F0AF80491B4FEA154E1FFA85F80127EF
:10C43000230CB1FBFEFC0EFB1C1108FB0CF043EAC5
:10C44000014398420AD9EB182CBF012100219842E0
:10C4500002D9002900F0D7800CF1FF3C191AA3B2D1
:10C46000B1FBFEF00EFB101108FB00F843EA01449B
:10C47000A04505D92C1902D2A04500F2C18001388F
:10C48000A4EB080440EA0C40BDE78B4208D9002E1B
:10C4900074D00027C6E9000138463946BDE8F08F60
:10C4A000B3FA83F767B98B42C0F0A480824240F2AE
:10C4B000A1803846002EABD0C6E90049A8E7FFDED0
:10C4C000C7F12005BB4002FA07FC01FA07F4EA4075
:10C4D00020FA05F8E94000FA07FE1A4348EA040486
:10C4E0004FEA1248200C1FFA82F9B1FBF8FA08FB58
:10C4F0001A110AFB09FB40EA01418B450AD9511880
:10C500002CBF012300238B4502D9002B00F088802B
:10C510000AF1FF3AA1EB0B01A4B2B1FBF8F008FB62
:10C52000101100FB09F944EA0141894504D9511869
:10C5300001D289457BD8013840EA0A40A1EB0901C4
:10C54000A0FB0C89494544464B4602D306D1C6455B
:10C5500004D20138B8EB0C0469EB0203002E5DD065
:10C56000BEEB040261EB030101FA05F522FA07F3C1
:10C57000F94000271D43C6E9005149E737463046D8
:10C5800046E7C2F12000954001FA02F721FA00F3D4
:10C590004FEA154E24FA00F11FFA85F8944039430A
:10C5A000B3FBFEF00F0C0EFB103300FB08FC47EA58
:10C5B00003439C4507D9EB182CBF012700279C4556
:10C5C00000D98FB30138A3EB0C0389B2B3FBFEF79C
:10C5D0000EFB173307FB08FC41EA03418C4504D9E5
:10C5E000691801D28C4525D8013FA1EB0C0147EA1F
:10C5F00000471DE7841A61EB03030120994659E7C0
:10C6000002382C443CE7ACF1020C2B4426E7ACF199
:10C61000020C2B44E0E602382C44EFE63746F7E6FE
:10C62000AAF1020A114475E702382B44CBE702381D
:10C63000114481E7023F2944D7E700BF704700BF9C
:10C640000022044BC3F80821C3F81021C3F80021CD
:10C65000704700BF00A002402DE9F04706F0FEFC45
:10C6600040F2CF7681468A460027DFF8548006F0F4
:10C67000F5FCB0EB090461EB0A05A64277EB050374
:10C680000ADA00200146FFF7DBFFA8B9002908BF3E
:10C690006FF00400BDE8F087D8F8080148B9D8F871
:10C6A000101139B9D8F80031002BE0D04FF0FF302D
:10C6B000E9E700200121E6E74FF0FF30EAE700BF9D
:10C6C00000A0024010B50446FFF7BAFF01220E4B4E
:10C6D0005A60FFF7C1FF78B90C4B0D491B681A6807
:10C6E0008A420AD001318A420AD01B689C4203D098
:10C6F000002C18BF6FF0010010BD6FF00300FBE7C6
:10C700006FF00200F8E700BF00A002402002002006
:10C710000100005A014B1878704700BF604C0020A0
:10C720002DE9F74F531E019045480B44834200F218
:10C73000848042F20B039A427FD94FF000094FF0F8
:10C7400000084048404B82429FBF0C3A22F4FF52FF
:10C7500022F01F020C328CBF18601A601E683B4B1F
:10C76000A6F10C0018600123394C3A480025C4E9B1
:10C770000289C4E90489072781462370364B01608A
:10C78000C3F8A85805F5E0700135202D43F8207056
:10C79000F8D108204FF00208304B1022C3F814855E
:10C7A000C3F81C052E484FF0010B40F08077C3F80A
:10C7B00010764FF0040A0027C3F81476C3F890B53A
:10C7C000C3F898A5C3F8A025FFF73AFFFFF738FF95
:10C7D0006FF07F038660234E41F08071C37041602B
:10C7E0000770477080F802B004F074F9376004F005
:10C7F00071F9C6F800B004F06DF9376004F06AF919
:10C80000FFF72AFF074628B184F800A0384603B096
:10C81000BDE8F08FD9F80010134B0A689A4204D093
:10C8200084F800A06FF00107F0E72A460431019870
:10C8300004F012FF84F80080E8E76FF00507E5E7F1
:10C84000FFFF01200C00010028020020240200202C
:10C85000604C0020200200200030005000A0024068
:10C86000944D002010560050010000A52DE9F04B1A
:10C87000154C05462378022B1FD1D4E904BC0027B0
:10C880004268124B1BEB02084CF100091E684F4531
:10C8900008BF464514D30E4B81681B680BEB0300A1
:10C8A00004F0DAFED4E9042300206968551843F146
:10C8B0000006C4E90456BDE8F08B6FF00600FAE705
:10C8C0006FF00500F7E700BF604C00202402002055
:10C8D000200200202DE9F04F4D4C85B02378804692
:10C8E000032B40F08F800268002A00F08E80D4E98C
:10C8F00004AB5AEA0B014FF0000301D1C4E9022353
:10C90000D4E902C11AEB0C054BEB0101029503912E
:10C91000DDE902018B4208BF82420BD14FF00009D2
:10C92000DFF8F8B0DFF8ECA0D8F8042091451FD369
:10C9300000201AE05AEA0B03F0D00322354B3648A8
:10C940001B681A60C3F804C0C3F808A0FFF7BAFE5A
:10C95000D8F800300022A3600023E3600023C4E97C
:10C9600004230028DAD00423237005B0BDE8F08F3B
:10C970000023D4E90451DBF80000A2EB0902461BB6
:10C9800061EB4107BB4208BFB2423CBF16461F469F
:10C99000DAF80000D8F808100C3049443246284430
:10C9A00004F05AFED4E90432F318009347EB020373
:10C9B0000193DDE90023C4E90423DDE9000100233C
:10C9C000DBF80020994208BF9042B144ACD3032168
:10C9D000DAF80030A26819605A60009A0E489A602E
:10C9E000FFF770FED4E90232D4E904155B1845EB79
:10C9F0000202C4E9023200220023C4E90423002811
:10CA000092D0B0E76FF00600AFE76FF00500ACE73B
:10CA1000604C002020020020050000A52402002018
:10CA2000064A1378023B012B04D800200021C2E9FA
:10CA3000040170476FF00600704700BF604C002093
:10CA400070B5134C2278931E012B1ED8D4E90456DE
:10CA500055EA060303D103230020237070BD032A87
:10CA600001BF0C4BA1681B680B4809BF1A6000206E
:10CA700059609D60FFF726FE00220023C4E90423CD
:10CA80000028E8D004232370E8E76FF00600E5E70C
:10CA9000604C002020020020050000A5F8B5204EC3
:10CAA00017463378032B34D1FFF7CAFD07231D4DFA
:10CAB00001F1010ED5F800C00022CCF80030AEEB39
:10CAC0000003B3F5803F28BF4FF4803388420BD377
:10CAD00012B3CCF804201448FFF7F4FD044688B1E3
:10CAE000042333702046F8BD0CEBC204A060184448
:10CAF000E360AEEB0003B3F5803F28BF4FF4803313
:10CB00000132E3E7296820220431384604F0A4FD0D
:10CB1000E8E76FF00604E5E76FF00504E2E700BF21
:10CB2000604C002020020020070000A538B507490E
:10CB3000054603F0DBFF002204460023284605F0EB
:10CB40008DFD204318BF022038BD00BF883501008D
:10CB50002DE9F04BB0B005468C2200210DA804F061
:10CB6000A5FD284B0222002600270C93012326490D
:10CB70008DF8342018918DF864200CA902AA05F1D3
:10CB80005400CDF838D08DF85C301A928DF88C3086
:10CB9000CDE90067CDE9026705F026FB78BBDDE94A
:10CBA00000BC5BEA0C032AD0DDE9028958EA0903DC
:10CBB00025D004AA41465846FFF770FF20B130B097
:10CBC000BDE8F04B03F089BF1049284603F08EFF03
:10CBD0002022044604A9284605F052FD0C490443CE
:10CBE000284603F083FF324604433B46284605F0BF
:10CBF00035FD204318BF022030B0BDE8F08B032084
:10CC0000FAE700BF8B350100913501009535010031
:10CC1000883501002DE9F043E3B005464FF4A872D2
:10CC200000210EA804F042FD574B03220E934FF44F
:10CC3000FC731893554B8DF83C208DF8CC202022A6
:10CC40001A9302233C92524A8DF86C308DF89C3036
:10CC50008DF8FC3004AB3E9240934FF0FF324FF022
:10CC6000FF3302A94B4C1C914B490126269104F538
:10CC7000027128914949CDE9022332910021C4E98A
:10CC800082230022002301AF39600091C4E9001122
:10CC900005F1540004F10C090DF118080EA9CDF8A6
:10CCA0004090CDF844D08DF894608DF8C460CDF8F4
:10CCB000D08035978DF82461CDE9042305F094FAEE
:10CCC000054620B10325284663B0BDE8F083D4E9CA
:10CCD0008223591C08BFB2F1FF3FF3D0DDE9040104
:10CCE000012908BF0028EDD2009920602C4852EAA3
:10CCF000030CC4E901190178814634D1A9BBDDE9EF
:10CD00000201013108BFB0F1FF3F84F81162D9D0B0
:10CD10003A68202AD6D8C9E90150414609F10D00E8
:10CD200089F80C2089F8006004F096FC3A682946DE
:10CD300002F10D004844C2F1200204F0B7FC626821
:10CD4000D9F804301344D9F808209342BAD84FF0E8
:10CD5000000204BF89F800200122C9F8043084F8D9
:10CD60001022002309E00029ACD00021D9F80400EA
:10CD70008B4208BF824203D0012384F81232A2E71B
:10CD8000002384F81132DAE79C350100A135010057
:10CD9000AD35010000000020A5350100A9350100D6
:10CDA0002C02002038B50D49054603F09FFE0022F5
:10CDB00000230446284605F051FC0949044328464F
:10CDC00003F094FE074B04435A682846002305F0FD
:10CDD00037FC204318BF022038BD00BF8835010052
:10CDE000A53501002C02002070B50446FFF792FC27
:10CDF000042805461ED02046FFF70CFFD8B9174B74
:10CE000093F812221E4622B12046BDE87040FFF77B
:10CE1000C9BF5A68002AF7D093F8113233B1FFF72F
:10CE2000FFFD18B1BDE8704003F057BE022D03D0DE
:10CE3000032D0FD0062070BD0848FFF717FD00280E
:10CE4000F0D196F81032002BDED0FFF7F9FD002864
:10CE5000DAD0E7E70148FFF73DFDF0E700000020EA
:10CE600000B589B0084942F20C026846FFF758FC49
:10CE70000022064B06481A70C3E901221A7301F01A
:10CE8000A1FF09B05DF804FB5C0A00202C02002021
:10CE9000784C002013B501F08FFF0222094C0A4B99
:10CEA000009201930421094B204604F032FAA36951
:10CEB00003F50073A361E36903F5FC73E36102B05A
:10CEC00010BD00BF5C020020B2350100BA35010080
:10CED0002DE9F043079C1CB920461460BDE8F0839F
:10CEE0000325B4FBF5F505EB4507BC4218BF01353A
:10CEF000B5F1804F05D34FF0FF3313606FF00B0097
:10CF0000ECE7AD0001358D4200D808B91560F5E7B2
:10CF100006460025DFF8B4E0BD4231469C4606F1E6
:10CF2000040603F1030329D3A54222D20135A54209
:10CF300028BF00239CF80060244F38BF9CF80130C4
:10CF40004FEAA60C17F80CC0A54281F800C007EB09
:10CF5000131C2FBF3D239B0003F03C03FB5C3601F9
:10CF60008B703D2306F030061CF80660CB704E70C7
:10CF70000431081A106000200870AFE713F803CCE2
:10CF800013F8021C4FEAAC091EF809904FEA0C1C7A
:10CF900013F8018C0CF0300C06F8049C0EEB111900
:10CFA00019F80CC0890006F803CC01F03C010EEB27
:10CFB000981C1CF8011008F03F0806F8021C1EF827
:10CFC0000810033506F8011CA6E700BF593601001A
:10CFD0002DE9F04300273C463D46079EDFF82881B7
:10CFE000B5420AD32E4604E00135AE420EF1010EE1
:10CFF00005D1CCBB1460002056E04FF0000E13F8B2
:10D0000005C0BCF1200FEFD0AE42F2D0A6EB05096F
:10D01000B9F1010F15D9BCF10D0F12D103EB0509C0
:10D0200099F80190B9F10A0F1CD0BEF1000F05D19B
:10D03000BCF13D0F08D10137022F08D96FF0150060
:10D0400032E0BCF10A0FEFE71CF0800FF6D118F8C0
:10D050000CC0BCF17F0FF1D0BCF13F0F01D8002F05
:10D06000ECD101340135BBE7062504F0070CE408D8
:10D0700005FB0CFC6C430CF1070CE41B04EBDC041B
:10D0800078B18C420DD80027014603253C46DFF8D5
:10D0900078E0DFF878801E449E4207D1091A1160BB
:10D0A000A9E76FF00B001460BDE8F08313F8019B53
:10D0B000A9F10A0C5FFA8CFCBCF1160F04D828FA0F
:10D0C0000CFC1CF0010FE7D11EF809C00134BCF1C3
:10D0D000400F08BF013D0CF03F0C042C4CEA8717B1
:10D0E000DAD17DB13C0C012D0C7002D1013100244C
:10D0F000D2E7022D4FEA17244C7016BF8F70023111
:10D100000331F4E72C46C7E7D93501000900400098
:10D110000B6801330B60014B1B681847844C0020DF
:10D120002DE9F04F85B00E9C9B46012CB8BF012421
:10D13000012B0CBF3023202316468246884601254A
:10D140000A270022DFF86C900293B6FBF9F30193F3
:10D150000AB9B1451CD8019B414603F13000D047C4
:10D1600001220135019B013F09FB13660A23012FB0
:10D17000B9FBF3F9E9D1414606F13000D047BBF1E4
:10D18000030F02D1641B002C0EDC05B0BDE8F08F4C
:10D19000BC42E7DBBBF1020FE4D8414602980392A0
:10D1A0000135D047039ADDE741462020D047013CB6
:10D1B000E9E700BF00CA9A3B014B1860704700BF07
:10D1C000844C0020002307B50246019303480B4618
:10D1D00001A903F08DFE03B05DF804FB11D100003E
:10D1E0004FF02002EFF3118382F31188BFF36F8FAA
:10D1F0000121044AC2F8401583F31188BFF36F8FF1
:10D20000002070470090035008B504464FF02002FC
:10D21000EFF3118382F31188BFF36F8F04F085F968
:10D22000204600F009FD034803F0D2FF00F058FB50
:10D23000FCE700BF9936010010B9024B186870472F
:10D24000406970477C02002038B50546064B1C68D3
:10D250000CB9204638BD2946206804F0E1F90028C1
:10D26000F7D06469F4E700BF7C020020F8B5002223
:10D2700007460E460A4D2C6824B95AB92E60002084
:10D280003760F8BD3946206804F0CAF920B122465B
:10D290006469F1E75661F2E76FF04400F1E700BF1F
:10D2A0007C0200200A2838B50446074D04D12868BE
:10D2B00043680D215B68984728684368E1B25B6862
:10D2C0009847204638BD00BF8002002010B5044CAE
:10D2D000204600F089FE2046BDE81040FFF76CBFF5
:10D2E000A5D2000008B5044802F038F9034B1860D5
:10D2F000FFF7ECFF002008BDC236010080020020CD
:10D3000070B50446064E4518AC4201D1002070BDF0
:10D31000306814F8011B43685B689847F4E700BF66
:10D320008802002007B5019001A9034802F06EFAB7
:10D3300003B05DF804FB00BF804E00202DE9F047EC
:10D34000334D8AB0334C0DF10808206843685B6C9C
:10D350003BB1984728B1206843681B6C0BB19847D4
:10D3600010B90AB0BDE8F087206843685B6B002BFA
:10D37000EBD098470028E8D0206843689B69002BD1
:10D38000E3D020224146984707460028DDD00026FA
:10D39000214CBE42D6DA2B7818F8069073B9D4F82F
:10D3A00000A0BAF1000F16D1524601A91B4802F0A5
:10D3B00001FA48B1C4F800A001232B70B9F10A0F9B
:10D3C0001DD100232B701AE0019BC3F804022360D7
:10D3D0002B78002BF2D12068D0F80432B3F5007F0F
:10D3E00004D3FFF79FFF00232360E5E75A1CB9F140
:10D3F0000A0F0344C0F8042283F8049001D00136D8
:10D40000C7E700232360064B1B689847F7E700BF78
:10D41000682A00208802002084020020804E00201C
:10D420008C0200200023014A04F023BB01D300003A
:10D43000154B13B51860154802F090F8144B0446CC
:10D440001860F8B14368DB6A03B1984763681B6AE8
:10D450000BB12046984763689B6933B101220DF1F7
:10D460000701204698470028F5D163682BB19B6CD3
:10D470001BB1224607492046984763689B6A0BB157
:10D480002046984702B010BD8C020020C93601002A
:10D49000880200203DD3000008B5114B1A686AB11C
:10D4A0004FF05022D2F80423D10707D500220D48AF
:10D4B0001A608368597A09B903F085FF0A4B1A6824
:10D4C0006AB14FF05022D2F80423920707D5002208
:10D4D00001211A600348BDE8084003F074BF08BD8D
:10D4E00000510050D04D00200451005000220D4B3F
:10D4F000C3F840214FF02002EFF3118182F311882D
:10D50000BFF36F8F084AD3F804051368C01A20F0E0
:10D510007F400344136081F31188BFF36F8F03F0E2
:10D52000B3B800BF00500150A802002070B51548E4
:10D5300002F014F810B3436801211B6898470024D7
:10D5400001264FF480334FF400120F4D3146C5F8D9
:10D550000845C5F84065C5F804330C4B15201C6020
:10D560000B4BC3F88021224600F018FA152000F07A
:10D5700005FA2046074B1E602E6070BD4FF0FF304D
:10D58000FBE700BFD0360100005001504051015070
:10D5900000E100E00850015070B5254CB0F1FF3FAC
:10D5A00008BF20464FF02003EFF3118583F3118865
:10D5B000BFF36F8F1F4BD3F804151F4B1B68CA1A9C
:10D5C00022F07F4612021AD4421E22EAE272A242DE
:10D5D000A8BF2246701C1044A04294BF1818181906
:10D5E000411A21F07F41134A20F07F430229C2F8FB
:10D5F000403506D985F31188BFF36F8F70BD0022C7
:10D60000E8E7D2F804350D49C31A23F07F435C1EC6
:10D610008C4205D94FF40012094BC3F80021E9E709
:10D62000012B02BF023020F07F40C2F84005E1E745
:10D63000FEFFFF0000500150A8020020FEFF7F0007
:10D6400000E100E04FF02002EFF3118382F3118834
:10D65000BFF36F8F064AD2F80405064A1268801A93
:10D6600020F07F4083F31188BFF36F8F704700BFB6
:10D6700000500150A802002030B50D4B89B01C6845
:10D680000DF107030293012300220393CDE9051353
:10D6900007238DF807008DF810208DF81C30636883
:10D6A00002225D6802A946232046A84709B030BD82
:10D6B000AC02002070B586B00E460DF1070105469C
:10D6C0001446FFF7D9FFC0B90D4B9DF80720186825
:10D6D00002AB0393022322EA060222438DF80720BD
:10D6E0008DF808508DF8092004938DF814304368A4
:10D6F00001225C6803A94623A04706B070BD00BFA5
:10D70000AC02002008B501F029FF024B1860002090
:10D7100008BD00BFAC020020014803F07FB800BF85
:10D72000BC33010008B530B143683BB1006802F07A
:10D73000ABF9002008BD6FF4E040FBE70048F9E7D3
:10D74000EA8FFFFF38B5044618B90B4B0B485B68EE
:10D750009847656855B115F00205206807D1014664
:10D76000074802F053F825600023636038BD142297
:10D77000002103F09BFFF7E7544D0020E036010045
:10D78000B002002010B5044618B9134B13485B686B
:10D7900098476368BBB92368ABB94FF0FF322146A5
:10D7A0000F4802F007F808B923681BB90A4B0D4867
:10D7B0005B68984714220021206803F077FF6368B4
:10D7C00043F002036360206805F088FA636843F061
:10D7D0000103636010BD00BF544D0020E03601001E
:10D7E000B00200200637010008B558B1436863B1A4
:10D7F00000684FF0FF3102F0D5F8054B002818BF44
:10D80000184608BD6FF4E040FBE70248F9E700BFA7
:10D81000E98FFFFFEA8FFFFF08B506494023142276
:10D82000054805F027FABDE808400449044803F01C
:10D830002DB800BFCC020020B0020020D43301007C
:10D84000C433010004488168406A884203D0034918
:10D850004FF080520A6070477009002004ED00E02C
:10D8600012498A684FF028001044EFF3098C80E8D1
:10D87000F01F202080F31188BFF36F8F0C4F4FF003
:10D8800000664A6A8A603E60906F0023936780F367
:10D89000118804B5104603F089FEBDE8044002F18A
:10D8A000280090E8F01F8CF3098870477009002069
:10D8B00004ED00E01EF0040F0CBFEFF30880EFF35F
:10D8C0000980816911F8021C0229FFD001B503F01B
:10D8D00062FE01BD014910220A60704710ED00E0B0
:10D8E000404080F3118830BF704700BFEFF30880DD
:10D8F000EFF30981724601B500F022F901BD00BFC6
:10D9000030BFFFF7FDBF00BF01B572B60B4A106A0A
:10D9100000281EBF0021116205F0AAF962B6EFF3DC
:10D920000580A0F110004FEAC0000549014409C973
:10D930009847BDE8014003490847000070090020EE
:10D940008430010045D80000094A0A4993680968F3
:10D950009867D96708494B6843F080534B600023B0
:10D9600083F31188BFF36F8F9368D86F704700BF40
:10D97000700900200435010000ED00E043B2002BE7
:10D9800008DB012200F01F0002FA00F0024A5B09E6
:10D9900042F82300704700BF00E100E043B2002BD3
:10D9A00001F10101A8BF03F160434FEA4111B8BF83
:10D9B000054BC9B2ABBF03F5614300F00F0083F81C
:10D9C00000131954704700BF14ED00E073B51E46F4
:10D9D0000A9B05460093099B8C1805F0ECFA0B4A4C
:10D9E000A4F1200323F0070322F001029A61069AB2
:10D9F0001E605A60079A9A60089ADA604FF0807247
:10DA0000DA61AB640023AB6702B070BDEB110100BB
:10DA1000F8B505460C4617461E4600F053F90A4B6A
:10DA20003C4428469D6024F0070403F0BFFD3046C7
:10DA300084F30988002163B681F31188BFF36F8FE7
:10DA40000022002303F0D1FB7009002008B5084B29
:10DA5000084A23F07F039360BFF34F8FBFF36F8FAC
:10DA600001F0BCFD01F0C4FD00F0F8F801F0FEFD8E
:10DA700000C2000000ED00E003F0DDFB202080F399
:10DA8000118808484FF40061401880F30988EFF3CB
:10DA900014800221084380F31488BFF36F8FFFF7CF
:10DAA000D5FF0000F02F00200C4B9A6A9A6A9A6A00
:10DAB000920708D55A6B9A6A120604D518B19A6A69
:10DAC00022F080029A620020044B9A6A9A6A9A6A4B
:10DAD0009A6A42F0FF029A620870704700ED00E017
:10DAE0000D4B9A6A9A6A9A6A920508D59A6B9A6A55
:10DAF000120404D518B19A6A22F400429A620020F6
:10DB0000054B9A6A9A6AD20558BF9A6A9A6A42F491
:10DB10007F429A620870704700ED00E0074B0020DA
:10DB20009A6A9A6A9A6A9A6A9A6A9A6A9A6A9A6AD5
:10DB30006FEA02426FEA12429A62704700ED00E01B
:10DB400070B5364B8AB05B680025C3F3080385F3D4
:10DB50001188BFF36F8F02F07F44B4F17F4F12D171
:10DB600002F00C04082C0ED014074EBF0E460646D9
:10DB700001250022033B8DF80720032B47D8DFE85F
:10DB800003F0043E423B2E46F3E7244BDA6A920749
:10DB90003DD4DC6A14F0804408D028331B78EBB104
:10DBA00001200DF10701FFF77FFF04469DF80730C4
:10DBB00093B92022314602A803F04EFD099B45B3DC
:10DBC000C3F3080222B96FEA53236FEA4323099390
:10DBD00002A9204603F0DDFC0AB070BD104B1B7893
:10DBE0002BB101200DF10701FFF77AFFDDE70D4BA7
:10DBF0001C88A4B2002CD9D0FFF790FFD5E70DF117
:10DC000007010020CFE70DF107010020ECE7002419
:10DC1000CCE723F4FF7323F00103D8E700ED00E025
:10DC200029ED00E02AED00E0024A536943F01003B9
:10DC30005361704700ED00E0BFF34F8F0549064B7D
:10DC4000CA6802F4E0621343CB60BFF34F8F00BF9A
:10DC5000FDE700BF00ED00E00400FA0500232021ED
:10DC60000348C2180133412B82F80013F9D17047E1
:10DC700000E100E038B505464FF02003EFF31184D2
:10DC800083F31188BFF36F8F02F004F9284602F086
:10DC90003FFB0A4B9B68AB420BD1094B5A68C2F35E
:10DCA000080212B92046FFF74FFE5A6842F0805230
:10DCB0005A602046BDE8384005F0C6B8700900201B
:10DCC00000ED00E010B50E4B88B002930D4B0E4CEA
:10DCD00003930E4B0E4A049302AB019301A8234613
:10DCE000012100F003F9002307930A4B0121E41AF4
:10DCF00005A80593069400F003F908B010BD00BF15
:10DD000000000020000000000000012006000100CB
:10DD1000000000200000002010B50B680C7A23F0F2
:10DD20001F0204F01F031A43CB68640923F01F038A
:10DD3000044943EA440343F001038860CA600B616D
:10DD400010BD00BF90ED00E02DE9F04F8046894600
:10DD500014460027484D85B04F4507DA58F827305C
:10DD60005E68C6B31F2E05D86FF01504204605B0B7
:10DD7000BDE8F08FF206F7D1D3F800A01AF01F0F1C
:10DD8000F2D1504603F03CFC834606EB0A00013812
:10DD900003F036FC8345E7D11BF1160FE4D0631E78
:10DDA0005B45E1DBC5F808B0E86858F82710C5F80E
:10DDB00008B02E6920F01F00D1E900321A449842C1
:10DDC00046F01F0602F1FF3A18D1564505D15FFA19
:10DDD0008BF003F0F3FB0137BEE7C5F808B0EB6842
:10DDE00022F01F0203F01F031A43EA60E0B203F0BF
:10DDF000E5FB10F1160FB7D0441CECE7C5F808B0EE
:10DE00002A69013B23F01F0302F01F02134356450A
:10DE1000E0B22B61EBD003F0D1FB10F1160FA3D0D1
:10DE2000C5F808B0EA689DF80830013E62F30403C3
:10DE30008DF808302B699DF808205B0863F34712C2
:10DE40008DF8082058F827200130D2E90032134419
:10DE5000009323F01F031E44A6EB0A06C4B226F06B
:10DE60001F060F2C03963FF67FAF20466946FFF74B
:10DE700053FF0134AFE700BF90ED00E00522034BF4
:10DE80005A60BFF34F8FBFF36F8F704790ED00E084
:10DE9000BFF35F8F0022014B5A60704790ED00E0A6
:10DEA00070B50E4D2E68102E15D80024FFF7F0FF28
:10DEB0000B4B0C4A1A63A64205D10B4B1E70FFF7A1
:10DEC000DDFF002070BD6968204601EB0411FFF7FB
:10DED00023FF0134EFE74FF0FF30F3E7E8330100B1
:10DEE00090ED00E0AAFF4400692A002010B5034C21
:10DEF0002278FFF729FF207010BD00BF692A00209B
:10DF00002DE9F74F254C8A4680460027A1464FF061
:10DF1000140B234D57451ADAD8F804300193002B1F
:10DF200036D0D8F800100846009103F069FBDDE90F
:10DF3000001306465818013803F062FB8642194A5E
:10DF400008D014235F436FF0150349F8073003B07E
:10DF5000BDE8F08F16F1160F2660F8D01378B342A3
:10DF6000F5DD0BFB0793AE60AE60E868197B60F3EC
:10DF7000040119732969187B490861F34710187364
:10DF8000EB6823F01F0363602B6923F01F032361F9
:10DF90000137143408F10C08BCE700BFCC0700209F
:10DFA00090ED00E0692A002070B50C4B0E461C78FD
:10DFB0000546234600210A4A0F2B0BDD094951F87B
:10DFC000040BFFF7A9FE224631462846BDE8704003
:10DFD000FFF7BABE936011610133EDE7692A0020B3
:10DFE00090ED00E0CC070020014B1860704700BFA7
:10DFF000A84C002008B51248FFF784FBF0B903F0E5
:10E00000ADFAD8B903F0B6FAC0B9012003F0B7FAF7
:10E01000A0B9012003F0A7FA80B9072003F08CFA19
:10E0200060B91F2003F082FA40B9072003F08FFA8D
:10E0300020B9BDE80840012003F084BA08BD00BF44
:10E04000423701000021014803F046BD104F002077
:10E05000084B01620360084B4360084B8360084B28
:10E06000C360084B0361084B4361084B83618B8994
:10E07000C3617047F7160100C11701009317010033
:10E08000611701003D170100151701000D17010070
:10E0900000234360014B816003607047F317010068
:10E0A000F0B504460B4E0C4F93B000F10C05002167
:10E0B000284601F035FD014608B913B0F0BD09ABA3
:10E0C000069304A801ABCDE90464CDE9073704F059
:10E0D00049F9ECE720340100651801002DE9F04111
:10E0E00004461E468846174600212C22069D03F052
:10E0F000DDFA064BC4E90787C4E90965636004F1EA
:10E100000C00BDE8F04104F060BE00BFA1E00000DB
:10E1100010B504460C3004F060FE04F10803D3E8A7
:10E12000EF2F42F00101C3E8E01F0028F7D1D30729
:10E1300005D42146BDE81040014804F04EBE10BD94
:10E14000B009002013B50024064A2346064900946E
:10E150000648FFF7C3FF0648FFF76AF9204602B0FA
:10E1600010BD00BF351901003B190100E807002070
:10E17000C1E100002DE9F0410E4E0F4FDFF83C8069
:10E180000021304601F0CCFC044608B9BDE8F0811E
:10E19000D4F80422211D384603F0F5FB054620463D
:10E1A000FFF7C0F8002DEBD029464046FFF7B0FF3F
:10E1B000E6E700BF004F0020E0070020E80700204E
:10E1C000014608B50A4804F008FE0A49D1E8EF3FC5
:10E1D00043F00102C1E8E02F0028F7D1DB0705D4A6
:10E1E000BDE808400839044804F0F7BD08BD00BF89
:10E1F000004F0020B44C0020B00900202DE9F74367
:10E20000904640F606120C1E1E464FF0020141F2E7
:10E21000044318BF134681460A9DADF802300B9A9D
:10E220000DEB0100A84720BB34B3022298FA98F303
:10E230000DEB020101A8ADF8023003F00DFA99F8D8
:10E2400000302A468DF8063003210B9B01A803F00D
:10E2500080FB70B9012006270446A0450ED176BA8E
:10E260000B9B2A46022101A8ADF8046003F071FB64
:10E27000D8B103B0BDE8F0830227EDE7A8EB0403B3
:10E28000012B09EB040119D10B782A468DF80430D3
:10E29000330A8DF8053003210B9B01A88DF8066029
:10E2A00003F057FB0028E4D101340B9A01211C48EC
:10E2B000A8470028DDD10C9B1C60DAE7022B1CD19B
:10E2C0000B782A468DF804304B7801A88DF805307C
:10E2D000330A8DF8063003210B9B03F03AFB00282C
:10E2E000C7D10B9B2A46012101A88DF8046003F0D9
:10E2F00030FB0028BDD10234D7E7032201A803F088
:10E30000ABF90B9B2A46032101A803F022FB00284E
:10E31000AFD104377B2F04F103049EDDC5E700BFB6
:10E32000A2370100014B03EB40107047104F002053
:10E330008279044B03EB4213DB69C01A024BC01015
:10E3400058437047104F0020ABAAAAAA10B5094B3A
:10E35000827903EB42139B690A685C6823689A42DE
:10E3600094BF0A600B60FFF7E3FFD4E9002302FBD0
:10E37000003010BD104F00202DE9F34105460191FA
:10E38000164603F0A0FB07464FF02003EFF3118879
:10E3900083F31188BFF36F8F6B8A002B41D02A8AD9
:10E3A0009A422CD90021284601F0BAFB044630B32A
:10E3B00088F31188BFF36F8F019B002B40D0731C33
:10E3C000012B06D903F07FFBC01BB04294BF361A65
:10E3D000B61BA379204F324607EB43139B6901A973
:10E3E0001B6820461B6898470546206148BBA079FA
:10E3F000214607EB401004F0F5FC2C461CE06B8A2C
:10E400005A1E6A8288F31188BFF36F8F18222C8AF4
:10E41000E41AEB6902FB04340F4BED1A6D11A57180
:10E42000CAE788F31188BFF36F8F3146284601F0A1
:10E4300077FB04460028BFD1204602B0BDE8F0813A
:10E440002361002301222360A280A381019A236912
:10E45000E281A360F0E700BF104F0020F8B504464A
:10E460000026144D04B9F8BD23792768013BDBB2BF
:10E470002371002BF7D1216959B163799B0707D428
:10E48000A379204605EB43139B691B689B6898475B
:10E490002661A079A66005EB40135B6926601BB17D
:10E4A000204698473C46DDE7214605EB401004F046
:10E4B00099FCF7E7104F002008B5094B1A786AB9A4
:10E4C00001210D2019700521FFF768FA0D20FFF7D3
:10E4D00055FA4FF00042034BC3F80423002008BD57
:10E4E0006A2A002000D0005070B5036882689B68DB
:10E4F000514D187901F01F0343EA40130020D5F86D
:10E500000443E4B200F5A27655F82660C6F304266B
:10E51000B34271D124FA00F6F6076DD5840004F1F8
:10E52000A04404F55044D4F8106526F00106C4F860
:10E530001065012404FA00F0C5F808033F4C04EB11
:10E540008304D4F8000220F44030C4F8000290683C
:10E55000C84010F001004ED0D068C84010F0010053
:10E5600049D05069C84010F0010051D09069C840AE
:10E57000C00745D41069D269C84022FA01F100F001
:10E58000010001F00101884214BF01210221002491
:10E59000294D04F5A27255F8220010F0030031D184
:10E5A000A20002F1A04202F55042D2F810651B020F
:10E5B00003F4F85326F4473626F4407643EA014143
:10E5C00004F14003C2F810659B00D2F810659BB2BD
:10E5D00003F1A04303F550433143C2F8101518600E
:10E5E000D2F8103543F00103C2F81035012303FAC5
:10E5F00004F4C5F8044370BD0130082882D19DE7BA
:10E600000321C4E70134082CC3D16FF01200F2E7F4
:10E610001369D269534023FA01F111F0010F14BFBD
:10E620004FF400324FF44032D4F8003223F4403338
:10E630001343C4F80032DEE700D0005000258450B8
:10E640002DE9F74F8046856803F47040B0F5804FA0
:10E650001E4640D009DCB0F5805F3ED0B0F5405F8B
:10E660003DD090B16FF0150032E0B0F5E04F38D0FA
:10E6700004DCB0F5A04FF5D1032006E0B0F5404F23
:10E6800031D0B0F5504FEDD1072006F44077B7F503
:10E69000807F2AD0A7F5007463426341012919BF26
:10E6A000D4B2A1464FF01F0900244FF0010B06F031
:10E6B000010C4FEA4C0747EA0C0747EA0020DFF855
:10E6C000A0A040EA830706F00203A1450FD2002074
:10E6D00003B0BDE8F08F0220D7E70120D5E7042082
:10E6E000D3E70520D1E70620CFE70323D6E7D8F804
:10E6F00000209268117904F01F0242EA4112803230
:10E700004AF82270A9680BFA04F2002B25D01143B5
:10E71000A9606969B0064CBF114391436961A96959
:10E7200070064CBF11439143A961296970074CBF22
:10E73000114391432961E96930064CBF0A4321EA3C
:10E740000202EA61214640460193FFF7CDFE002810
:10E75000BED10134E4B2019BB7E721EA0201D7E759
:10E760000025845050492DE9F0410D68002D61D0FD
:10E770004E4B00269A681B68DFF838E19F68D2E9A3
:10E7800002030340D2E90504204323EA000338686A
:10E79000D4691269006954404440012023EA04040A
:10E7A0009BBB0B60002301261F464148D0F8042381
:10E7B00006FA03F1114210D09A0002F1A04202F5CC
:10E7C0005142116849B103F5A27150F82110176048
:10E7D000C1F3042106FA01F10C430133082BE5D102
:10E7E00054BB85B101240025304BDFF8C8C09A68BE
:10E7F0001B689E68D2E902130B40D2E90510014361
:10E8000023EA01037BBBBDE8F08103420FD097F8F8
:10E8100004C006F01F0242EA4C120EEB8202D2F84C
:10E8200000C223EA00032CF4403CC2F800C20136C7
:10E830004000B5E72C46B5E71C4FD7F80880D8F85C
:10E8400000100029CDD00E68D8F80C308A6823401B
:10E85000134203D04B68224638469847002EC0D05A
:10E8600031463668F0E71C421AD0307905F01F01B6
:10E87000D76941EA401110690CEB81017840E8400A
:10E8800010F0010F14BF4FF400374FF44037D1F8A8
:10E89000000223EA040320F440303843C1F80002A8
:10E8A00001356400AEE700BF7CD100500C4E002063
:10E8B00000D000500025845010B5044600220121EC
:10E8C0000A20FFF76BF82368064A9868234600F190
:10E8D000080100F0A3FB044B984214BF6FF00F0037
:10E8E000002010BDADE900000000AD0B2DE9F04F98
:10E8F000044687B00D4691469A4680684FF0FF3136
:10E9000001F0CAFC23680027986800F0CBFBDFF811
:10E91000988023684F45D3F808B001D3002522E042
:10E920002E7A16F0080136D112220DF1060002F0FF
:10E93000BDFE06F001038DF804306B6816F0020F7F
:10E9400002932B680CBF2022002201A958468DF8A3
:10E9500005A0049300F0D2FB40450FD0114B984224
:10E960001CD06FF004052368986800F0ABFBA0682A
:10E9700001F06CFC284607B0BDE8F08FA0681030AD
:10E980004FF0FF3101F088FCA3680C351B6A43454A
:10E99000E7D10137BDE76FF02205E4E76FF00F051F
:10E9A000E1E700BF0B00AD0B0000AD0B02788B68F8
:10E9B000012A0AD01AB1022A09D0064A00E0064A02
:10E9C0001A6203F1100001F041BC044AF8E7044A5E
:10E9D000F6E700BF0100AD0B0000AD0B0100AE0B70
:10E9E0000200AE0BF0B54B79012B29D0032B24D1BB
:10E9F00010268B79032B20D1CC792CB1012C1CD182
:10EA000003689B681B79C3B10A7912B1022A14D139
:10EA10000E2247F6122705680B68AD68BB422D68C9
:10EA200062D029D8B3F5965F61D014D8B3F5167FBC
:10EA30005FD007D8B3F5967F5ED06FF0220052E02A
:10EA40000026D6E7B3F5966F59D0B3F5166FF4D11B
:10EA50004FF41D233CE0B3F5615F53D004D8B3F508
:10EA6000165FEAD1324B33E0B3F5964F4CD0B3F595
:10EA7000E14FE2D12F4B2BE0B3F5E13F46D012D866
:10EA80004DF6C027BB4244D005D8B3F5164FD4D1BC
:10EA90004FF41D031CE0B3F5614F3DD0B3F5963F35
:10EAA000CBD1254B14E0B3F5E12F38D008D8B3F51E
:10EAB000613F37D0214FBB42BFD14FF0806307E0A9
:10EAC000B3F5612F31D01E4FBB42B6D14FF080530A
:10EAD000C5F8243534438368224303C9C5F86C253F
:10EAE00083E803000020F0BD4FF40003F0E7154B6E
:10EAF000EEE74FF41C33EBE74FF4A033E8E74FF4B5
:10EB00009E23E5E7104BE3E7104BE1E74FF0EB7393
:10EB1000DEE74FF46503DBE74FF46B03D8E74FF014
:10EB2000E863D5E74FF06C73D2E74FF07063CFE73F
:10EB30000050270000C0750000903A0190D00300FB
:10EB400040420F0000B0130000F03A0000A04E0059
:10EB50000122F8B503270D46036809689B688A40BF
:10EB60001C68264B86689A6001F1800243F8227087
:10EB70006A68571C1EBF4FF0000C02F1800743F873
:10EB800027C0C4F80C15A968C4F814254A1C15D070
:10EB9000EA68571C12D001274FF0030C97409F6082
:10EBA00002F1800743F827C04FF0000C01F1800705
:10EBB00043F827C0C4F80825C4F810153146FFF7FC
:10EBC00011FFC8B90823C4F800356B68013309D0B8
:10EBD00006F10C03C4F81001C4F834350123C4F85D
:10EBE00038352360B3689B68C4F844350023C4F803
:10EBF00048350123A360E360F8BD00BF00258450C1
:10EC000030B585B06C460546084B0FCB84E80F0045
:10EC1000002201210920FEF7C1FE0920FEF7AEFE09
:10EC200021462846FFF794FF05B030BD4033010070
:10EC300030B585B06C460546084B0FCB84E80F0015
:10EC4000002201210820FEF7A9FE0820FEF796FE0B
:10EC500021462846FFF77CFF05B030BD5033010048
:10EC60000749D1E8EF3F43F00102C1E8E02F002857
:10EC7000F7D1DB0703D40839024804F0AEB8704777
:10EC8000284D0020B009002037B50D461446FEF788
:10EC9000DBFA38B16A460449CDE9005402F0CDFAF6
:10ECA00003B030BD0520FBE7F721010070B5124924
:10ECB0008AB0054603F0D1FA4FF0FF32044601A9AD
:10ECC000284603F007FD002604436946304603F05A
:10ECD000B2FA052807D068B90099284603F0BDFAB2
:10ECE00001360443F1E701A9284603F0F6FC20436E
:10ECF00018BF02200AB070BD5A3701002DE9F04F4D
:10ED0000ABB0054600215C2213A802F0CFFC04231F
:10ED10000DEB030B8DF84C302023234E12A905F187
:10ED200054001296CDF850B01C9303F05DFA002801
:10ED300038D11E49284603F090FA002200230446E9
:10ED4000284603F08BFC31468246284603F085FABC
:10ED500059468146284603F080FA154980462846E0
:10ED600003F07BFA4FF0FF3209A90746284600F06E
:10ED70005FF809AA06460F495846FFF785FF70B9A4
:10ED800009A9284603F0A9FC44EA0A0343EA090357
:10ED900043EA08033B433343184318BF02202BB018
:10EDA000BDE8F08F0320FAE76437010088350100E1
:10EDB0006937010075220100014800F003B800BF67
:10EDC0002C4D0020034B1A6802B9034A10601860EA
:10EDD000704700BF3808002034080020084B1B682B
:10EDE0000BB9184670475A898242F8D11A898A426B
:10EDF00001D80023F5E75B6803EBC103F1E700BF2F
:10EE00003408002070B5044608480D4602F001FCA5
:10EE100006490246204603F048FC30B92A46EB1763
:10EE20002046BDE8704003F019BC70BD8835010074
:10EE3000064B10B402F100449C4203D9A02310BC3D
:10EE400003F0D0BB4FF4806010BC7047FEFFFF7F23
:10EE50007FB5154616680C46A9B10268526A526918
:10EE6000CDE9003221460DF10F032A4603F0CEFD15
:10EE700038B99DF80F3043B11CB12B68B34200D2B2
:10EE8000E05404B070BD024AEAE74FF00040F8E7F2
:10EE900021280100064B1868043B1B68092B05D18B
:10EEA000013801288CBF00200120704700207047E6
:10EEB0003401FF00054B1868043B1B68092B03D184
:10EEC000431E584258417047002070473401FF00EC
:10EED00008B5FFF7DFFF30B14FF050230022C3F831
:10EEE0001421C3F81821FFF7E5FF30B101233F4A91
:10EEF0001360A2F63822C2F878353D4B1B68092B07
:10EF000007D13C4B1B68022B02BF01223A4BC3F8CE
:10EF10007825FFF7CFFF10B10E22384B1A60FFF7AC
:10EF2000B9FF20B10022364B1A6001225A6000223C
:10EF3000D30003F57F03D3F80013013108D0D3F8D1
:10EF400000130132D3F80433B2F5807F0B60EFD1A8
:10EF50002C4BDA69D1073BD52B4B1946D3F800244B
:10EF6000012AFBD1C3F80425D1F80034012BFBD1D1
:10EF7000244BDA69D20708D5DA69234922F0010265
:10EF8000DA61D1F80024012AFBD11A6A01320AD1D0
:10EF90001A6A22F0FF0242F020021A621A4AD2F8DC
:10EFA0000034012BFBD10022174BC3F80425D3F802
:10EFB0000024012AFBD1BFF34F8F1449144BCA68B8
:10EFC00002F4E0621343CB60BFF34F8F00BFFDE755
:10EFD0001B6A0133C0D00D4AD2F88C3043F4406331
:10EFE000C2F88C300B4B0C4A1A6008BD384A0050EE
:10EFF0003001FF003401FF0000400050E4AE035038
:10F000000C4700500080FF000090035000ED00E02E
:10F010000400FA05484D00200090D0034FF0340C56
:10F02000F8B506791B4D0CFB06FC05EB0C0494F8B7
:10F030002D7067BB45F80C2040F20C6C63604B7B75
:10F04000A76084F8307084F82F7084F832300C6830
:10F05000114F04F1800347F823C04B68006803F1A7
:10F06000800E47F82EC0C0F80845C0F80C358B68F4
:10F07000C0F824351AB140F30730FEF77FFC342383
:10F0800003FB06550123054885F82D30F8BD0448DB
:10F09000FCE700BF3C080020002584500000AD0BB9
:10F0A0000500AD0B062102680379C2F80015342172
:10F0B000034A01FB0323022283F82D20704700BF7F
:10F0C0003C0800200268037934200A4900FB03133E
:10F0D000002009499860C2F80813D2F8001221F400
:10F0E000BC51C2F80012C2F80005012283F82D209D
:10F0F000704700BF3C08002002029C012DE9F04748
:10F100004FF0340E002390F804C0A44E04680EFBA8
:10F110000C6E8EF82E30CB680D4603F06043B3F1D1
:10F12000005F174603D09E4D2846BDE8F0879D4BF3
:10F13000C4F808339EF82F3003F0FF0A2BB1DEF835
:10F140000830994DC4F80433EEE712F0140F0CBFE9
:10F150000123002389468EF82F300EF10C08B9E800
:10F160000F00A8E80F00D9F80030CEF82070C8F8DA
:10F170000030C7F300138EF830306B782A78C4F86B
:10F18000883517F0010318BF0123C4F804A1C4F89F
:10F1900024A1C4F860A1C4F848A1C4F8503517F000
:10F1A000020318BF0123C4F84035032A00F2AA80E5
:10F1B000DFE802F079955E02296901F06043B3F15E
:10F1C000005FB0D14FF48073E868C4F800326B6818
:10F1D000C4F84405C4F8483501200023C4F8503170
:10F1E0002062A060D4F850010028FBD0C4F8503150
:10F1F000AB68C4F84415C4F8483534234FF4802173
:10F2000003FB0C6399600823684D380703D4032A75
:10F210001CBF0122E250342303FB0CF3F218F35815
:10F22000002B72D10121D4F84821D4F80401002820
:10F2300040F08380003218BF0122D4F82401002856
:10F240007FD0C4F82431D4F860E1D4F80002BEF1D4
:10F25000000F02D010F4007F05D121626161BEF180
:10F26000000FE0D00022C0056BD5C4F84831DAE7C2
:10F270006B68E968C4F84415C4F848352B6903F095
:10F280006041B1F1005F7FF44EAFA968C4F8343536
:10F290004FF48453C4F83815C4F80032342303FB08
:10F2A0000C63022112E06B68E96817F0200FC4F8C4
:10F2B0004415C4F848354FF034030BD04FF4807137
:10F2C000C4F800124FF4802103FB0C639960012302
:10F2D000236298E74FF40071C4F80012DFE76B680F
:10F2E000E968C4F83415C4F838354FF48053C4F8CD
:10F2F00000323423022103FB0C6399600123236253
:10F30000002381E708232A4D7FE7790744BF0023C4
:10F3100093607B0606D4342303FB0C639A6842F0A7
:10F3200002029A60342303FB0C66B36843F4007353
:10F33000B360B368C4F80433F6E6C4F804310122BC
:10F340007BE7002A3FF46FAF3421002001FB0C6201
:10F35000D4F8C434C4F8C43482F82F008BB1154AF1
:10F3600013F0010F144D18BF154613F0020F02F1F0
:10F37000010218BF154613F0040F104B18BF1D46AD
:10F38000D2E67B063FF5D0AE0CFB0161204603F0D0
:10F3900030FC094B002808BF1D46C5E63C0800208C
:10F3A0000A00AD0B02029C010B00AD0B0000AD0B7F
:10F3B0000400AD0B0000AE0B0100AD0B0200AE0B64
:10F3C000F0B5564B87B0D3F824211D46544CEAB112
:10F3D0000022C3F82421D3F80421BAB9A268C3F8E3
:10F3E00008230222A260A268C3F80423D3F8602194
:10F3F0001AB1D3F800329E0503D40122474B1A629A
:10F400005A61012384F82E3007B0F0BDD5F80431DD
:10F41000002B4ED00023C5F80431236A5D060AD4C0
:10F4200094F82E303BB93E493C4803F0E2FB80F0B3
:10F43000010084F82E00236A13F004071ED1394E10
:10F4400001AD0FCE0FC5336894F830C02B60334B3D
:10F45000C3F86071C3F85C71BCF1000F02D094F87E
:10F460002E205AB10022C3F80022A2602E4AC3F80F
:10F4700008234FF480622D4BC3F88021274AD2F82D
:10F48000C4349807C2F8C4343AD501238DF800304B
:10F4900094F830300BB984F82F30236A5B0703D51A
:10F4A00094F82E30002BAFD0D4E90031684698474D
:10F4B000AAE7C5F84831237B83B91A4F01AE0FCFB5
:10F4C0000FC63B68336094F83030002BD6D1C5F8B6
:10F4D0000032A360144BC5F80833CAE74FF4007339
:10F4E000C5F8003240F20223A36003F1CE73C5F8E1
:10F4F0000833A368C5F804330123AB602B6283E7AC
:10F50000590701D50223C1E7DA0701D50323BDE777
:10F5100094F82E30002BB9D00423B7E700A0005098
:10F520003C0800204808002002029C0100E100E0A5
:10F5300070B50026084B53F82040013053F8205096
:10F54000A54200D870BD236820465B68984700B18B
:10F5500066600C34F4E700BFF0340100104B70B566
:10F5600005461E460F4C9C4204D10E4CB44209D1B4
:10F57000002412E062681AB122681268AA420CD014
:10F580000C34F0E763680BB90C34EFE723682846C6
:10F59000196802F045F80028F6D1204670BD00BF7A
:10F5A000544E0020A04D002008B50B4D4FF0200216
:10F5B000EFF3118382F31188BFF36F8F03F020FD07
:10F5C000012104460228D8BF084603F029FD2C6219
:10F5D000FEF786F9EAE700BF700900200248034AF7
:10F5E0000021121A02F062B800000020AC2A0020AC
:10F5F00008B50648064A0749121A02F02DF8BDE878
:10F600000840054A0549064802F026B8604C00202B
:10F61000304F0020C437010000000000C437010053
:10F6200000000020012208B50B4B02201A70FFF7E2
:10F630007FFF0A4A0A490B4801F0CAFD0320FFF781
:10F6400077FF00F027FF01F03DFA074A137B23F014
:10F650000103137308BD00BFAB2A0020A3370100CC
:10F66000703701007D370100F008002080B5344B71
:10F67000A6B083F308880024E023324D012785F8E3
:10F680002230EC772C766C76AC766B6A2E4E43F497
:10F69000E0236B62FEF7C8FAFEF71CF94FF0FF3368
:10F6A000AB62EB6206AB80222146184601F0FEFFFA
:10F6B000B06020468DF82570FFF73AFF3846FFF717
:10F6C00037FF224D00F03CFD214B4FF48062CDE925
:10F6D0000473CDE902441F4BCDE900441E4928467E
:10F6E000756200F057FE6B7B23F0040213F01B0FD2
:10F6F0006A7304D1AB6913B9284600F0E7FA174BD7
:10F70000012205930F23CDE903320023144DCDE9E7
:10F71000013300934FF4A072124B1349284600F0B6
:10F7200039FE6B7B4FF4806223F004036B730F4B45
:10F730000949C6E906330548064BF560FEF768F946
:10F74000F037002000ED00E070090020F0080020F4
:10F75000A437010025F60000B02A0020A9370100D7
:10F7600070080020A9F50000B02E002088090020B4
:10F7700070B50E4B0E4CA34201D3002070BDD3E9EF
:10F78000030141EA000212F003020BD19D685A61A5
:10F79000AA4201D11C33EEE75E6901320E60596165
:10F7A0000144F5E76FF01500E8E700BF804E002048
:10F7B0009C4E002010B513460C464FF02002EFF38C
:10F7C000118182F31188BFF36F8F42695AB12260B1
:10F7D00013684361836901338361002081F31188D9
:10F7E000BFF36F8F0DE01BB923606FF00B00F5E7DF
:10F7F0000246044800F020FC18B9034B9B685B6983
:10F80000236010BDAC2A00207009002070B50446AA
:10F810000D464FF02003EFF3118683F31188BFF3F9
:10F820006F8F03F07CFB80B100212A68C1674261C1
:10F83000427BD20603D183690BB900F047FA314607
:10F84000BDE87040074803F0F4BA2B6862691A609B
:10F850002B686361A369013BA36186F31188BFF341
:10F860006F8F70BDAC2A002038B5074C074DAC42F5
:10F8700001D3002038BD04F114032046C4E9053348
:10F8800001F094F91C34F2E79C4E00209C4E0020BD
:10F890002DE9F04F1C1E85B007460D4692463BDD14
:10F8A00003F0DCFB10EB04081D4B1E4EFB1A9B10F3
:10F8B0005E4307F1140BF6B203AB02AA0095514662
:10F8C000384601F0B9F96B79029A2E7162F303039D
:10F8D0006B716B68039A62F31F336B60C8B1C4B17C
:10F8E00010F10C0F15D14FF02003EFF3118083F3CB
:10F8F0001188BFF36F8F2246594600F079FB631CD5
:10F90000DAD003F0ABFBA8EB0004002CD4DC6FF0E2
:10F910000A0005B0BDE8F08F4FF00008C4E700BF53
:10F920009C4E0020B76DDBB670B504780268417854
:10F93000114EC4EBC404A400120B01F00F013019E6
:10F9400001F02CFA4FF02003EFF3118583F31188B7
:10F95000BFF36F8F04F11400304403F00DFB28B1A6
:10F960002946BDE87040054803F063BA85F3118865
:10F97000BFF36F8F70BD00BF9C4E0020AC2A0020EB
:10F9800010B5044603F00EFB40B9054B9B68586F59
:10F9900020B12146BDE8104003F087B9002010BD1A
:10F9A00070090020F8B504460F464FF02003EFF32E
:10F9B000118583F31188BFF36F8FC26830495AB144
:10F9C00080688E68B04215D0B7B985F31188BFF34F
:10F9D0006F8F6FF00F000CE08B6893F90E3023618E
:10F9E0008B680132E260A36085F31188BFF36F8FEB
:10F9F0000020F8BD2369F2E790F90E3096F90E1059
:10FA00009942A8BF194621EAE17199422BDA00F028
:10FA100055FB06463B46224629461A4800F00CFB99
:10FA20000028E6D04FF02003EFF3118583F311880F
:10FA3000BFF36F8F236821699C4207D033B193F9DC
:10FA40000E309942A8BF194621EAE171A06890F9E9
:10FA50000E30994209D16EB129460A4803F0E9F9FE
:10FA60006FF00A00C5E70026D4E700F027FB002866
:10FA7000F2D1F0E785F31188BFF36F8FF0E700BF95
:10FA800070090020AC2A002038B583680446002B9A
:10FA90003BD0214A926893423AD1DA7B013ADA7339
:10FAA000C368012B05D0013BC36000F0F3F80020D0
:10FAB00038BD4FF02003EFF3118583F31188BFF3B6
:10FAC0006F8F0169806890F90E30994201D000F083
:10FAD000F5FA204603F023FAA06080B190F90E20D9
:10FAE00022610022C267427BD20603D183690BB92F
:10FAF00000F0ECF82946094803F09BF9D5E7E060EF
:10FB000085F31188BFF36F8FCFE76FF01500CFE754
:10FB10004FF0FF30CCE700BF70090020AC2A002076
:10FB200038B50B464FF02002EFF3118582F31188B0
:10FB3000BFF36F8F046894B12368426823F0030316
:10FB40009442036008BF43600121204603F031F96D
:10FB5000044685F31188BFF36F8F204638BD002916
:10FB6000F7D000F108022946104600F065FA002897
:10FB7000F3D1024B9B685C69EFE700BF700900207E
:10FB800010B5084C23685BB1FDF75CFD2368064A9D
:10FB9000184410610021BDE81040184603F040BA37
:10FBA00010BD00BFAC09002070090020F8B50D465B
:10FBB0004FF02003EFF3118483F31188BFF36F8FAD
:10FBC0004FF4004140F2E73600270022E1FB0067D6
:10FBD000094B30461A6139464FF47A720023FCF71C
:10FBE000B1FB064B1860064B1D60FFF7C9FF84F39D
:10FBF0001188BFF36F8FF8BD70090020AC09002099
:10FC0000A80900204FF02003EFF3118183F311883E
:10FC1000BFF36F8F044B9A68D37B013BD37381F39F
:10FC20001188BFF36F8F704770090020094B03F1F3
:10FC30002802824205D19B688B4202D14B7BDB06B6
:10FC400006D1D1E9003213605A600023C1E90033C4
:10FC5000704700BF7009002038B50D4C024604F112
:10FC6000280003F025F9054600B9E568A3684AB9FC
:10FC70005A7BD20606D1AA6922B9DA897F2A01D92C
:10FC8000636238BD9D4201D0FFF77AFF6562F8E7F5
:10FC90007009002010B54FF02003EFF3118483F3B7
:10FCA0001188BFF36F8F084B00209A68D37B013314
:10FCB000D373FFF7D1FF84F31188BFF36F8FBDE8D3
:10FCC000104003F0CDB800BF70090020F8B54FF028
:10FCD0002003EFF3118483F31188BFF36F8F154A6C
:10FCE000114651F8283F8B421DD0E3B1D66A90F9F6
:10FCF0000E5093F90E70AF4210DD5A68C0E9003221
:10FD000010605860437B63F07F0343730020FFF76C
:10FD1000A3FF84F31188BFF36F8FF8BDB34202D005
:10FD20001B68002BE5D1D36A01604360D36A186079
:10FD3000D062E7E770090020F8B504464FF02003D1
:10FD4000EFF3118583F31188BFF36F8F90F90D30B6
:10FD5000002B03DA01461848FFF768FF174A02F143
:10FD60002801D2E90A308B421FD0F3B194F90E601A
:10FD700093F90E70B74213DD5968C4E900310C6085
:10FD80005C60637B906863F07F036373031B58427E
:10FD90005841FFF761FF85F31188BFF36F8FF8BDFE
:10FDA000984202D01B68002BE2D1C4E90010D36A4C
:10FDB0001C60D462E5E700BF9809002070090020AC
:10FDC000154A164938B50C689368A342144603D106
:10FDD000BDE83840FFF7D4BE00250D601049096822
:10FDE000B9B1D9897F2914D80E4993F90E50096801
:10FDF0008D420EDB0C498B420BD0996949B91169D0
:10FE0000814203DC1846FFF797FFE1E7091A116109
:10FE100038BD00232361FBE770090020A4090020FE
:10FE2000AC090020A80900207008002070B5044625
:10FE3000183003F0CFF84FF02003EFF3118683F36F
:10FE40001188BFF36F8F94F90D30002B07DA21462C
:10FE50000E48FFF7EBFE637B03F07F0363730C4DEB
:10FE6000637BA86843F010036373031B5842584137
:10FE7000FFF7F2FE86F31188BFF36F8FAB68A342E2
:10FE800003D1BDE8704002F0EBBF70BD98090020BF
:10FE900070090020036D70B5044603B1984704F162
:10FEA000180003F097F84FF02003EFF3118583F368
:10FEB0001188BFF36F8F204602F099FF0646D8B134
:10FEC00094F90D30002B07DA21461248FFF7AEFEF9
:10FED000637B03F07F0363730F4B9868021B5042F0
:10FEE0005041FFF7B9FE637B43F00803637385F36A
:10FEF0001188BFF36F8F70BD637B9B07F3D52146DD
:10FF0000A068FFF793FE637BA66023F00203637390
:10FF1000E9E700BF980900207009002038B50446C1
:10FF20004FF02003EFF3118583F31188BFF36F8F38
:10FF300090F90D30002B07DA01460948FFF776FEED
:10FF4000637B03F07F036373064B9868031B58427F
:10FF50005841FFF781FE85F31188BFF36F8F38BDDD
:10FF6000980900207009002070B504460D46164619
:10FF7000FFF7D4FF637B43F0020363737DB12B680B
:10FF8000A5609D4229D043B394F90E2093F90E1039
:10FF900091421CDD5A68C4E9003214605C60731C35
:10FFA00022D04FF4004540F2E730002126EAE67601
:10FFB0004FF47A72C5FB06010023FCF7C3F90B4925
:10FFC000421C04F11800BDE8704000F01BBB6968DA
:10FFD0008B4202D01B68002BD8D16B682560636010
:10FFE0006B681C606C60DAE770BD00BFBD2E01005D
:10FFF00070B506460E4D0F4CA868FFF7B5FFAB680D
:020000040001F9
:1000000030462360FDF7A0FC4FF02002EFF3118390
:1000100082F31188BFF36F8F2268A968914204BFF1
:100020000022226083F31188BFF36F8F70BD00BF81
:1000300070090020A409002010B50C461146064A9C
:100040009068064A10601A46FFF78EFF2046BDE80A
:100050001040FDF779BC00BF70090020A409002002
:10006000F8B5461C02F0F6FF34184FF02003EFF30A
:10007000118783F31188BFF36F8F0D4D0D4BA86867
:100080001860FFF74BFFA8680B493246183000F0A4
:10009000B9FAAA683846537B43F010035373FDF74F
:1000A00053FC02F0D7FF201A20EAE070F8BD00BF31
:1000B00070090020A4090020BD2E01002DE9F8439D
:1000C00004464FF02003EFF3118983F31188BFF347
:1000D0006F8F02F08CFE4EB2804660B3174D214602
:1000E00005F128073846FFF7A1FDAB6AA673BB42AE
:1000F0002A4619D0C3B1E96A93F90E00B0420EDD69
:100100005A68C4E9003214605C600120FFF7A4FD66
:1001100089F31188BFF36F8F4046BDE8F883994299
:1001200002D01B68002BE7D1D36A27606360D36AD3
:100130001C60D462E9E7A673EAE700BF70090020FB
:100140000021044B084603F12802C3E90A22FFF705
:100150002DBD00BF70090020F8B5234C234BA268C9
:100160009A4229D04FF02003EFF3118683F31188D0
:10017000BFF36F8F04F12805A1682846FFF756FDED
:10018000A26AA368AA4228D03AB3E06A93F90E1093
:1001900092F90E708F421BDD5168C3E900210B609C
:1001A00053605A7B012062F07F025A73FFF754FDBF
:1001B00086F31188BFF36F8F4FF02003EFF31180A8
:1001C00083F31188BFF36F8FBDE8F840FDF7BCBB28
:1001D000824202D01268002ADAD1E26A1D605A60B7
:1001E000E26A1360E362DCE7700900207008002017
:1001F00038B5431C044605D1104B986800F02AF925
:10020000204638BD4FF4004540F2E73000214FF45E
:100210007A72E5FB04010023FCF794F8044648B920
:10022000FFF79AFF4FF47A7084FB0001C40B44EA95
:100230004144E5E7FFF714FF0446F3E770090020A7
:10024000014B9868704700BF7009002070B50446E4
:100250004FF02003EFF3118683F31188BFF36F8F04
:1002600002F05DFE054670B1437BDB0603D1836976
:100270000BB9FFF72BFD0023EB673146BDE870405B
:10028000044802F0D6BDD4E902329A4218BF0133C5
:10029000A360F2E7AC2A002010B402460B464FF0F0
:1002A0002000EFF3118180F31188BFF36F8F946802
:1002B00044B1013C946081F31188BFF36F8F00203B
:1002C00010BC704733B981F31188BFF36F8F6FF0A3
:1002D0000F00F5E7014810BCFFF7AEBEAC2A0020C6
:1002E00010B5084C4FF0FF334FF40062064920462A
:1002F00000F02AF9054904F1100002F059FE00202F
:1003000010BD00BFB0090020F0370020AE3701005B
:100310004FF02003EFF3118183F31188BFF36F8F48
:10032000094A136B834207D15B6E136381F3118813
:10033000BFF36F8F70471346002BF7D05A6E82427F
:10034000F9D1426E5A66F1E77009002010B54FF0FE
:100350002002EFF3118482F31188BFF36F8F427B89
:10036000510704D484F31188BFF36F8F10BD22F0BE
:10037000040112F01B0F417303D183690BB9FFF71E
:10038000A5FC2146BDE81040014802F052BD00BF67
:10039000AC2A00202DE9F0430446994687B0129D0F
:1003A000DDF840800495119DDDE90E76CDE90285EA
:1003B000CDE90076FDF70AFBC4E91597C4E9176893
:1003C0004FF02003EFF3118283F31188BFF36F8F97
:1003D000074B196B1C63616682F31188BFF36F8F43
:1003E0009B6803B15B6F636707B0BDE8F08300BF34
:1003F0007009002070B5002686B005960E9E0F9DF0
:1004000004960D9E044603960C9E02960B9E019642
:100410000A9E0096FFF7BEFF6B1C03D02DB9204645
:10042000FFF794FF204606B070BD4FF4004640F23F
:10043000E73000214FF47A720023E6FB0501FBF759
:1004400081FF0349421C04F1180000F0DBF8E9E7E2
:10045000BD2E010038B505464FF02003EFF311849F
:1004600083F31188BFF36F8FFFF7E0FC074B9B68A6
:10047000AB4205D12146BDE83840054802F0D9BC61
:1004800084F31188BFF36F8F38BD00BF700900205F
:10049000AC2A00202DE9F04F284E294DB04687B0F8
:1004A000B54205F1300410D3FFF7ACFB4FF400491F
:1004B00040F2E7360027224CDFF888A0444521D3DC
:1004C00007B0BDE8F04FFFF7E5BB54F8043C0593D7
:1004D00054F8103C049354F8143C039354F8183C1B
:1004E000029354F81C3C019354F8203C009354E9C7
:1004F0000A2354E90C01FFF74DFF54F8303CDD644A
:100500002546CDE7616A4B1C04D0256821B92846F1
:10051000FFF71CFF3034D1E7B346BC46E9FB01BC12
:100520004FF47A72002358466146FBF70BFF5146A1
:10053000421C05F1180000F065F8EBE7544E00206E
:10054000544E0020BD2E01002DE9F041054686B035
:100550000E461746984602F038FC05F110040020BC
:10056000094BCDE90400CDE90208CDE900503A4637
:1005700031462046FFF73EFF2046044906B0BDE85D
:10058000F04102F015BD00BFFF110100B7370100B7
:10059000034B1B680BB9FDF755B80020704700BF2F
:1005A000400A0020036840B1074A5268904204D0D4
:1005B0001BB19A6881680A449A60426813605A6065
:1005C0000023C0E9003370474C4D00200B4B10B5A1
:1005D0001C689C4208BF0024FFF7DAFF54B1A368EF
:1005E000181A20EAE070064B1B6913B19842A8BFA5
:1005F000184610BD6FF00040F5E700BF4C4D0020DD
:100600007009002070B504461646C1604FF0200303
:10061000EFF3118583F31188BFF36F8FFFF7B8FFF6
:10062000012EACBF80190130164BA0601A689A42A7
:1006300001D05E6832B95A68236062605A681460FB
:100640005C600AE09068A168884215DD411A9160FB
:100650005168C4E900210C6054601A689A4206D0BF
:10066000944204D1FFF7B2FF0021FCF795FF85F318
:100670001188BFF36F8F70BD091A9642A160DAD05E
:100680001268D7E74C4D00202DE9F04B0446FFF7E8
:1006900097FB4FF02003EFF3118583F31188BFF32D
:1006A0006F8F214F214EB846DFF884903460D9F81F
:1006B000004032684C45D7E900BC05D024B1A3689E
:1006C000934214DD9B1AA36000241BEB02004CEB49
:1006D000E271C8E900013460FFF778FF2146FCF7BA
:1006E0005BFF85F31188BFF36F8FBDE8F08B1BEBC9
:1006F00003004CEBE371D31A33600023C7E9000118
:10070000A3602046FFF74EFF85F31188BFF36F8F7C
:10071000E36898474FF02003EFF3118583F31188C6
:10072000BFF36F8FC3E700BF18020020400A00200C
:100730004C4D00202DE918484FF02003EFF31184B1
:1007400083F31188BFF36F8FFCF77CFF074BD3E96E
:10075000002312EB000B43F1000C5846614684F372
:100760001188BFF36F8FBDE8188800BF1802002002
:10077000026A38B5002A044602DD0E49FFF742FF3F
:10078000636A01336362A3690BB12046984754F84A
:10079000105FA5420DD065B1284602F031FB6B7B9E
:1007A000DB0604D1AB6913B92846FFF78FFA0023A3
:1007B000EB6738BD7107010010B5094C23681BB108
:1007C00001230020236010BD00F07CF80028F7D042
:1007D0000138062896BF034B034853F8200010BD8C
:1007E000440A002008350100FE8FFFFFBFF34F8F42
:1007F0000549064BCA6802F4E0621343CB60BFF3BD
:100800004F8F00BFFDE700BF00ED00E00400FA05D8
:10081000014B5B68184700BF544D0020024BD0E9E4
:100820000012C3E900127047544D0020704700BF0A
:1008300010B5044620B1BFF35F8F0020206010BDCB
:100840000348FFF7E5FFBFF35F8F0020206010BD76
:100850004835010010B5044610B10023236010BDD7
:100860000248FFF7D5FF0023236010BD24350100A7
:1008700050B10122D0E8EF3FC0E8E12F0029F9D1C3
:10088000012BF7D0BFF35F8F0020704770B40B4B84
:100890000668C268D0E90154C3E90242C3E90065B1
:1008A000D1E903020E68064BD1E90154C3E90065A2
:1008B000C3E902401A6170BC704700BF5C4D002064
:1008C0006C4D002010B500F033F870B900F03AF824
:1008D00080B900F0B5F880B9114B1B681B0EF02BE6
:1008E0000DD0062400F026F800E0032400F058F8AC
:1008F000204610BD0424204610BD0024F2E7094A1A
:10090000094B12689A4201D00724EBE7012000F05E
:1009100097F80028F1D1054B04461860E8E700BFBE
:1009200028198450241A84500000E0200C1A8450A6
:100930000020704700207047014B1860704700BFCF
:10094000041A845010B5114800F048F800B110BDE9
:100950000F4800F043F80028F9D10E4C204600F073
:100960003DF80028F3D10C4B0C481C6000F036F821
:1009700001460028EBD100F02DF8044608B12046CE
:1009800010BD00F03FF82046FAE700BF8C4D002074
:10099000804D0020884D0020904D0020844D002087
:1009A00008B5084800F024F8074800F021F8074887
:1009B00000F01EF8064800F01BF8BDE8084000F003
:1009C0000BB800BF8C4D0020804D0020884D0020CA
:1009D000844D002000207047704700BF08B5034BCE
:1009E00002681B6810689847002008BD5C4D002015
:1009F00008B5034B02685B6810689847002008BD83
:100A00005C4D002070B5094C094D2069AB689847D2
:100A100018B1084B08485B6898470021074AEB6803
:100A200011602069BDE87040184700BF6C4D002080
:100A30005C4D0020544D002068350100580A00200C
:100A4000F8B51A4C1A4D0746AB6820699847E8B9C3
:100A5000184E33687FB93BB90120174A1749C2F8CD
:100A600000050A68002AFCD101333360EB68206975
:100A700098470020F8BD002BF8D0012B08D0013B8F
:100A800033602069EB6898470020F3E70C48F8BD15
:100A90000A4A1368002BFCD1074A6FF07E40C2F867
:100AA0000035FFF749FF3368E9E700BF6C4D0020D0
:100AB0005C4D0020580A002000008450101984501A
:100AC000E98FFFFF08B5FCF7E5F9FCF7C9F9FCF77A
:100AD00007FFFCE70A20FFF78BBB021D04D0C31CF5
:100AE0000CBFC82006207047C920704738B505469E
:100AF00008460C4600F08DFD214602462846BDE81A
:100B0000384001F0D2BD2DE9F0419DF81840002594
:100B1000002C14BF022400244FF0800C6718AF4251
:100B20001BD81846BDE8F08123465C008D42A4B274
:100B300008D290F800802CFA06FE18EA0E0F18BFB3
:100B400044F001041B0406F1010648BF5440082E7E
:100B5000EAD1013501302346E1E70026E5E770B52B
:100B60000C25C66890F90B004D438842104606EBF1
:100B70000504B8BF7459002AB8BF02F11F00401124
:100B800004EB8001196002F01F0070BD4FF02003DC
:100B9000EFF3118083F31188BFF36F8F7047C307A2
:100BA00003D581F31188BFF36F8F7047FF232DE9C1
:100BB000F04F4668C372324600234FF00C09078994
:100BC000016806FB07FC90F80A806144984505DC43
:100BD000002319468F4220DCBDE8F08FBCFBF2F504
:100BE00009FB03FED0F80CA0202D0AEB0E0404F143
:100BF000040BC4E901BB05D8C372920822F00302BA
:100C00000133E3E715F11F0448BF05F13E04641109
:100C10004AF80E1001EB8401EFE7C268056802F1A3
:100C2000040CEC1845F803C09568013165609568BF
:100C300033442C609460CDE72DE9F04F87B0847A7F
:100C400000AFC7E90132A300073303F4FF63ADEB44
:100C5000030DEA4653464268054643F8042900223C
:100C6000944202F1FF3909DD22B11868800820F0B2
:100C70000300586053F8040F884208D2B9F1FF3FCF
:100C800007D100233A6C13606FF00B002CE00132A7
:100C9000E6E7287C10F0010001D0FFF777FF0C2376
:100CA00080464E46EA6803FB09231A4652F8044F71
:100CB00094421DD1013E721CA3F10C03F5D1002416
:100CC0004146287CFFF76BFF3B6C1C60002CDBD09F
:100CD000BB680020C3F800902B68E41A5AF829304A
:100CE00094FBF3F47B681C601C37BD46BDE8F08FB5
:100CF000D4E9003213605A600023C4E900332B6842
:100D00005AF82610E21A07F1140B92FBF1F25B4637
:100D100031462846FFF723FF0122796902FA00F0E5
:100D20000B683A6003430B604E45C9DA2A685AF8EB
:100D30002630A21A92FBF3F201365B46920031464E
:100D40002846FFF70CFF7A693B68E96803FA00F070
:100D50001368034313600C23032203FB06115AF8A4
:100D6000260001F1040E2318FA608A68C3F800E037
:100D70005A608A681360FA688B60013A0344FA602B
:100D8000F3D14146287CFFF70AFF2B7CDB0703D514
:100D9000FFF7FCFE8046C7E7F868FBE72DE9F04F58
:100DA00085B0837A00AF9B00073303F4FF63ADEB9C
:100DB000030DEB46436806465C460120CBF8003045
:100DC000814215D2307C884610F00100154601D0D2
:100DD000FFF7DCFE0446B8F1000F11DA4FF0FF34E4
:100DE0002146307CFFF7DBFE1437BD46BDE8F08FAF
:100DF000236801309B0823F0030344F8043FDFE736
:100E00005BF828302A4603FB05FA7B6033684146CD
:100E100003EB0A093B60304607F10C03FFF79FFE26
:100E20000123FA6803FA00F01368396823EA000323
:100E300013600C22F36802FB08331A1D41F80A20E4
:100E40009A682146C9F804209A68C2F80090C3F84D
:100E50000890307CFFF7A3FE307C10F0010001D039
:100E6000FFF794FE0446B8F1000FB9D007F10C0368
:100E70002A4641463046FFF772FEFB680028B8BF9D
:100E800003301B6820F0030023FA00F010F00F007D
:100E9000A6D1844625F0030A7A680AEB000353437F
:100EA00032680130D118D1F8049052F803E00428D8
:100EB000C9F800E0CEF8049042F803C0C1F804C0BD
:100EC000EAD1002DB8BF033508F1FF38AD1082E735
:100ED0000020704770B50D4604464520A0472946BE
:100EE0005220A04729462346BDE8704052201847AB
:100EF0002DE9F04F4FF0000806460F461C464FF014
:100F0000FF3AC14645468BB00292029B187810B951
:100F10000BB0BDE8F08F45B9252800F04B8139466C
:100F2000B047029B01330293EFE764286DD019D8D4
:100F300039280AD831285FD22D2800F04181302885
:100F40004BD0252807D1394632E1582800F0BB8024
:100F5000632800F02A8139462520B047029B394694
:100F6000187825E1702800F0A48011D869284CD0A9
:100F70006C2805D1B8F16C0F2AD14FF04C08D0E79E
:100F80006828E8D1B8F1680F22D14FF04808C8E7C7
:100F9000752872D018D87328DDD154F8045BAB469D
:100FA0005B461BF8010B002840F0FC80B9F1030FF1
:100FB00040F00C815D1BAAEB0505002D49DD39468B
:100FC0002020B047013DF8E778287CD07A28C2D1AC
:100FD000B8F1000FBFD18046A3E7BAF1000F0EDAD7
:100FE000B9F1000F00F0EF80A0F1300AB9F1000F65
:100FF00008BF4FF0020994E7BAF1000FF4DB0A23AF
:1010000003FB0A0AAAF1300AF0E7B8F17A0F02D11D
:1010100054F8045B20E0B8F16C0FF9D0B8F14C0F34
:10102000F6D1073424F00704F4E8022312F100415A
:10103000069143F1000107910021DDE906BC4FF064
:10104000FF30614508BF584505D239463046FFF7A5
:1010500041FF002565E71546002D05DA39462D20AC
:10106000B0476D420AF1FF3A4B462A46CDF800A040
:1010700039463046FCF754F8EBE7B8F17A0F02D165
:1010800054F8042B11E0B8F16C0FF9D0B8F14C0F03
:10109000F6D100214FF0FF30073424F00704F4E8C4
:1010A0000223994208BF9042CFD3CDF800A04B460F
:1010B000DEE739463020B04739467820B0474FF058
:1010C000080A4FF00109029B1B78702B04D154F8D9
:1010D000043B049300230DE0B8F16C0FF7D0B8F196
:1010E0004C0FF4D1073424F007031C4654F8082BA6
:1010F0005B680492002110224FF0400B0391059190
:10110000ABF1040B0498CBF1200CABF1200120FAD9
:101110000BF003FA0CFC40EA0C0023FA01F108433F
:1011200010F00F0006D1059911B9BBF1000F22D1C3
:10113000302103E009288CBF57213021084440B2F8
:10114000394608930592B047039B059A01330393F0
:10115000089BBBF1000F23D1B9F1030F7FF479AFE6
:10116000039BC3EB4A05002D7FF773AF3946202060
:10117000B047013DF7E7511E9245089107DBB9F1F1
:10118000010F06D1394630200993B047099B089AD0
:10119000B6E7B9F1020FFAD1099339462020F4E7F6
:1011A0000595ADE73946B047FAE6394654F8040BE1
:1011B000B0474EE7A846A9464FF0FF3A0125B0E6F2
:1011C0004FF00309ADE64FF00109AAE60546A8E68F
:1011D0000FB407B504A951F8040B0191FBF7F2FF16
:1011E00003B05DF804EB04B07047044608B5084648
:1011F00011461A46A047FFF723F8FCF73BFD10B550
:1012000004464FF0FF312046FEF78AFC03460028D3
:10121000F7D042680833D3E8EF1F21F0010CC3E890
:10122000EECFBEF1000FF6D1CB0700D59047FEF709
:1012300093FFE6E77047FDF74BBE2DE9F74F0546F4
:101240000E4617460024EB88A34203DC002003B0BF
:10125000BDE8F08F00222B79286913FB04F31833C3
:101260009BB282420BDA4FF0060CE9680CFB0211CC
:10127000B1F800C09C4535D1D1F802205ABB684670
:10128000A6468146002102464FF00A0BBEFBFBFA40
:101290000BFB1AE8BEF1090F08F1300801F1010C4F
:1012A00009F8018B20DC0DF1080EF4444FF0730EA9
:1012B0000CF808EC4FF0000E023101EBD17C4FEA44
:1012C0006C0C00EB0108E64511DB02A801444FF06D
:1012D000000001F8080C39462846B0470028B6D16E
:1012E0000134B0E70132BCE76146D646CEE790F85C
:1012F000009018F801AD0EF1010E00F801AB88F86E
:101300000090E0E70379C28800215A43183000F0CA
:10131000CDB970B50446BDF81060059D0171C0E9F6
:101320000336C280FFF7EEFF21462846BDE8704035
:10133000FBF79CBF0C228368C9B202FB01314B7AD8
:1013400023B9087AB0FA80F040097047022070474C
:101350000268F8B59768CCB286684FF02003EFF3C7
:10136000118583F31188BFF36F8F0C226243B1188C
:101370000B7A1BB3013BDBB20B7213BBB3503A4485
:101380004B605368B3B90C23012103FB0473DA7A71
:101390001B8902F150221160002203F150231A60D0
:1013A0000C21002001FB0464607285F31188BFF3F7
:1013B0006F8FF8BD98470028E5D1F1E76FF0440042
:1013C000F3E70020F1E738B50C248368054604FBF9
:1013D0000134012363724FF02003EFF3118183F393
:1013E0001188BFF36F8F23682BB160681A6883423E
:1013F000226008BF626081F31188BFF36F8F03B969
:1014000038BDD3E9012128469047E4E703682DE978
:10141000F041D0F808C005469F68CEB24AB10C230F
:1014200073435CF803309A425CD013B11B68002B05
:10143000F9D14FF02003EFF3118083F31188BFF34C
:101440006F8F0C2171430CEB01031C7A0134E4B261
:101450001C7280F31188BFF36F8F32B34FF05020AE
:101460004FF0030EC0F808E3587AA0B94FF0200EF1
:10147000EFF311888EF31188BFF36F8F1060D3F8EC
:1014800004E0BEF1000F20D15A604CF8012088F32F
:101490001188BFF36F8F4FF050230321C3F804135B
:1014A00018B1D2E9013128469847012C0BD10C2301
:1014B0007343FB586BB90C23012203FB0676B37A06
:1014C00003F150231A6000200EE0CEF800205A608D
:1014D000DDE7284698470028EDD131462846FFF73A
:1014E00072FFF0E76FF00F00BDE8F0810022FFF718
:1014F0008DBF10B50022044601210520FCF74EFAED
:101500000520FCF73BFA4FF050230222C3F81825C0
:1015100003220020C3F80423A368C3E90000A368E2
:10152000C3E9030010BD70477047704700F01F0209
:101530001F210420FCF7BEB800F00702072102209B
:10154000FCF7B8B8024601210720FCF7B3B8420106
:1015500002F0E002E0211520FCF7ACB818223F2190
:101560002A20FCF7A7B8420002F0FE02022129203F
:10157000FCF7A0B813223F212C20FCF79BB80246B1
:1015800001212B20FCF796B80020FBF73DBEFCF7AD
:10159000ADB901F05EBB0146006801F05ABB08B569
:1015A000FCF7AEF9BDE80840FCF74CB907B50021DF
:1015B00001A8FCF7F9FC03B05DF804FB30B50B683B
:1015C00085B04C689DF808200D89013C009349893D
:1015D00023F01F03234465F3040261F3471223F051
:1015E0001F030F288DF808200393044605D8694689
:1015F000FCF792FB204605B030BD6FF01504F9E70B
:1016000040E800F313F4803FD8B208BF6FF0150034
:1016100070470023C25C0AB9184670470133F9E7E6
:101620000138013910F8013F11F8012F934201D11F
:10163000002BF7D1981A704710B55AB101398418A8
:1016400010F8012B11F8013FA04201D09A42F7D0C7
:10165000D01A10BD1046FCE7F0B581EA0004A507DA
:1016600003460BD0013B0A4491421AD1F0BD002A37
:10167000FCD011F8014B013A03F8014B9C07F6D15D
:101680009508AC001E1F0F19B94205D16FF0030673
:10169000234406FB0522E5E751F804CB46F804CFC6
:1016A000F2E711F8014B03F8014FDDE7034670B58F
:1016B000C9B29C0710D141EA012444EA04459408C8
:1016C00003EB8406B3420DD16FF0030505FB042440
:1016D0001C44A34209D170BD002AFCD003F8011BB1
:1016E000013AE6E743F8045BECE703F8011BF0E797
:1016F0004FF0FF307047002906DB036A9A898A425F
:1017000002DD9B68585C7047FF207047036A986849
:101710000844704710B404460846111E0ADB246AC8
:10172000A289D21A8A4205DBA4681A46214410BC59
:10173000FFF792BF4FF0FF3010BC704710B4141E7B
:101740000ADB006A8289D21AA24205DB80681A4647
:10175000204410BCFFF770BF4FF0FF3010BC704743
:1017600007B5002911DB026A9389083B8B420CDB29
:101770009368684619440822FFF76EFF01980099A4
:1017800000BA09BA03B05DF804FB4FF0FF30014620
:10179000F8E707B5002910DB026A9389043B8B4206
:1017A0000BDB9368042219440DEB0200FFF754FF92
:1017B000019800BA03B05DF804FB4FF0FF30F9E781
:1017C00007B5002912DB026A9389023B8B420DDBCD
:1017D00093680DF1060002221944FFF73DFFBDF8A2
:1017E000060040BA80B203B05DF804FB4FF6FF700C
:1017F000F9E770B504468068154608300E4600F0DB
:101800008DF9A8420AD3A0682A463146083000F074
:1018100069F9002062682A44626070BD4FF00040A0
:10182000FBE7FCF71BBE70B504460E46FCF70AFC4E
:10183000054618B1736A1BB121469847284670BD0A
:10184000A079FCF76FFD042204F1140105F11400E6
:10185000FFF702FFF2E783890830994228BF194653
:1018600000F049B9F8B50846136A0C461646984781
:101870000546F0B90120F8BDA389AB4211D9314624
:101880002046FFF7D0FF07462A46A168083000F03F
:1018900029F9002229462046FFF7DDFF1FB9022063
:1018A000E9E727460024F36939463046984700287F
:1018B000E0D1002CE0D12046DDE710B5044640B170
:1018C0008B6A0BB1143098472046BDE81040FFF7F3
:1018D000A8BF10BD08B5FCF7DBFB002008BD08B5AC
:1018E000FCF7B6FB002008BD2DE9F04185681E46D7
:1018F000AB8907468B420C46904602D20320BDE8D6
:10190000F08105F1080000F009F9B042F6D3A868AB
:10191000324620444146FFF79FFEAB893444A34240
:101920003CBFA4B2AC814FF0000038BF7C60E6E75A
:1019300000F0CDB84FF48070704738B50C468989F7
:10194000A068FBF76FFD05462046FFF76AFF2846B3
:1019500038BD30B51D4687B003461446009103AA32
:10196000052104A8FBF7B4FA2A46042104A8A047DD
:1019700007B030BD10B50446006818B1FFF751FF3D
:101980000023236010BD2DE9FF41036804460F4684
:101990001646002B4AD0012E4FD86FF0150540F2A5
:1019A0001442ABB293425CD040F20962934242D1FE
:1019B000206800F08CF82068023EB0F80C8050F8E7
:1019C000083F984400F0AAF800960146BB1C03AA01
:1019D0004046FBF7FDFA002847D12068039B828927
:1019E000ADB2134440F209629BB29542838105D1A6
:1019F000012B3AD9083000F086F8A0802068A3882F
:101A00008189994217D330D80123009341F22102F2
:101A100000238068FFF777F838BB23689A89023A79
:101A20009A812060184604B0BDE8F081FCF70AFBFB
:101A300020600028AFD10023F4E70222394603A832
:101A4000FFF70AFEBDF80C301D0245EA132540F2EF
:101A50000963ADB29D42A2D040F214439D429ED094
:101A60009BE723689B89002BA5D12046FFF782FFC7
:101A7000E1E72DE9F0479946012386B000939046AF
:101A8000002341F2210207460D46FFF73CF80024EF
:101A900006460DF1140AAC4203DB002006B0BDE897
:101AA000F087B4FA84F1CDE9019ACDF8008033468D
:101AB0002A1B49093819FCF7A1FB0028EED1059B28
:101AC0001C44E8E7704708B501F0C8FA08BD0023D8
